{
  "_format": "hh-sol-artifact-1",
  "contractName": "ERC721",
  "sourceName": "contracts/ERC721.sol",
  "abi": [
    {
      "inputs": [
        {
          "internalType": "string",
          "name": "name_",
          "type": "string"
        },
        {
          "internalType": "string",
          "name": "symbol_",
          "type": "string"
        }
      ],
      "stateMutability": "nonpayable",
      "type": "constructor"
    },
    {
      "anonymous": false,
      "inputs": [
        {
          "indexed": true,
          "internalType": "address",
          "name": "owner",
          "type": "address"
        },
        {
          "indexed": true,
          "internalType": "address",
          "name": "approved",
          "type": "address"
        },
        {
          "indexed": true,
          "internalType": "uint256",
          "name": "tokenId",
          "type": "uint256"
        }
      ],
      "name": "Approval",
      "type": "event"
    },
    {
      "anonymous": false,
      "inputs": [
        {
          "indexed": true,
          "internalType": "address",
          "name": "owner",
          "type": "address"
        },
        {
          "indexed": true,
          "internalType": "address",
          "name": "operator",
          "type": "address"
        },
        {
          "indexed": false,
          "internalType": "bool",
          "name": "approved",
          "type": "bool"
        }
      ],
      "name": "ApprovalForAll",
      "type": "event"
    },
    {
      "anonymous": false,
      "inputs": [
        {
          "indexed": true,
          "internalType": "address",
          "name": "from",
          "type": "address"
        },
        {
          "indexed": true,
          "internalType": "address",
          "name": "to",
          "type": "address"
        },
        {
          "indexed": true,
          "internalType": "uint256",
          "name": "tokenId",
          "type": "uint256"
        }
      ],
      "name": "Transfer",
      "type": "event"
    },
    {
      "inputs": [
        {
          "internalType": "address",
          "name": "to",
          "type": "address"
        },
        {
          "internalType": "uint256",
          "name": "tokenId",
          "type": "uint256"
        },
        {
          "internalType": "bytes",
          "name": "data",
          "type": "bytes"
        }
      ],
      "name": "_safeMint",
      "outputs": [],
      "stateMutability": "nonpayable",
      "type": "function"
    },
    {
      "inputs": [
        {
          "internalType": "address",
          "name": "to",
          "type": "address"
        },
        {
          "internalType": "uint256",
          "name": "tokenId",
          "type": "uint256"
        }
      ],
      "name": "approve",
      "outputs": [],
      "stateMutability": "nonpayable",
      "type": "function"
    },
    {
      "inputs": [
        {
          "internalType": "address",
          "name": "owner",
          "type": "address"
        }
      ],
      "name": "balanceOf",
      "outputs": [
        {
          "internalType": "uint256",
          "name": "",
          "type": "uint256"
        }
      ],
      "stateMutability": "view",
      "type": "function"
    },
    {
      "inputs": [
        {
          "internalType": "uint256",
          "name": "tokenId",
          "type": "uint256"
        }
      ],
      "name": "getApproved",
      "outputs": [
        {
          "internalType": "address",
          "name": "",
          "type": "address"
        }
      ],
      "stateMutability": "view",
      "type": "function"
    },
    {
      "inputs": [
        {
          "internalType": "address",
          "name": "owner",
          "type": "address"
        },
        {
          "internalType": "address",
          "name": "operator",
          "type": "address"
        }
      ],
      "name": "isApprovedForAll",
      "outputs": [
        {
          "internalType": "bool",
          "name": "",
          "type": "bool"
        }
      ],
      "stateMutability": "view",
      "type": "function"
    },
    {
      "inputs": [],
      "name": "name",
      "outputs": [
        {
          "internalType": "string",
          "name": "",
          "type": "string"
        }
      ],
      "stateMutability": "view",
      "type": "function"
    },
    {
      "inputs": [
        {
          "internalType": "uint256",
          "name": "tokenId",
          "type": "uint256"
        }
      ],
      "name": "ownerOf",
      "outputs": [
        {
          "internalType": "address",
          "name": "",
          "type": "address"
        }
      ],
      "stateMutability": "view",
      "type": "function"
    },
    {
      "inputs": [
        {
          "internalType": "address",
          "name": "from",
          "type": "address"
        },
        {
          "internalType": "address",
          "name": "to",
          "type": "address"
        },
        {
          "internalType": "uint256",
          "name": "tokenId",
          "type": "uint256"
        }
      ],
      "name": "safeTransferFrom",
      "outputs": [],
      "stateMutability": "nonpayable",
      "type": "function"
    },
    {
      "inputs": [
        {
          "internalType": "address",
          "name": "from",
          "type": "address"
        },
        {
          "internalType": "address",
          "name": "to",
          "type": "address"
        },
        {
          "internalType": "uint256",
          "name": "tokenId",
          "type": "uint256"
        },
        {
          "internalType": "bytes",
          "name": "data",
          "type": "bytes"
        }
      ],
      "name": "safeTransferFrom",
      "outputs": [],
      "stateMutability": "nonpayable",
      "type": "function"
    },
    {
      "inputs": [
        {
          "internalType": "address",
          "name": "operator",
          "type": "address"
        },
        {
          "internalType": "bool",
          "name": "approved",
          "type": "bool"
        }
      ],
      "name": "setApprovalForAll",
      "outputs": [],
      "stateMutability": "nonpayable",
      "type": "function"
    },
    {
      "inputs": [],
      "name": "symbol",
      "outputs": [
        {
          "internalType": "string",
          "name": "",
          "type": "string"
        }
      ],
      "stateMutability": "view",
      "type": "function"
    },
    {
      "inputs": [
        {
          "internalType": "uint256",
          "name": "tokenId",
          "type": "uint256"
        }
      ],
      "name": "tokenURI",
      "outputs": [
        {
          "internalType": "string",
          "name": "",
          "type": "string"
        }
      ],
      "stateMutability": "view",
      "type": "function"
    },
    {
      "inputs": [
        {
          "internalType": "address",
          "name": "from",
          "type": "address"
        },
        {
          "internalType": "address",
          "name": "to",
          "type": "address"
        },
        {
          "internalType": "uint256",
          "name": "tokenId",
          "type": "uint256"
        }
      ],
      "name": "transferFrom",
      "outputs": [],
      "stateMutability": "nonpayable",
      "type": "function"
    }
  ],
  "bytecode": "0x60806040523480156200001157600080fd5b50604051620016ae380380620016ae8339810160408190526200003491620001db565b81516200004990600090602085019062000068565b5080516200005f90600190602084019062000068565b50505062000282565b828054620000769062000245565b90600052602060002090601f0160209004810192826200009a5760008555620000e5565b82601f10620000b557805160ff1916838001178555620000e5565b82800160010185558215620000e5579182015b82811115620000e5578251825591602001919060010190620000c8565b50620000f3929150620000f7565b5090565b5b80821115620000f35760008155600101620000f8565b634e487b7160e01b600052604160045260246000fd5b600082601f8301126200013657600080fd5b81516001600160401b03808211156200015357620001536200010e565b604051601f8301601f19908116603f011681019082821181831017156200017e576200017e6200010e565b816040528381526020925086838588010111156200019b57600080fd5b600091505b83821015620001bf5785820183015181830184015290820190620001a0565b83821115620001d15760008385830101525b9695505050505050565b60008060408385031215620001ef57600080fd5b82516001600160401b03808211156200020757600080fd5b620002158683870162000124565b935060208501519150808211156200022c57600080fd5b506200023b8582860162000124565b9150509250929050565b600181811c908216806200025a57607f821691505b602082108114156200027c57634e487b7160e01b600052602260045260246000fd5b50919050565b61141c80620002926000396000f3fe608060405234801561001057600080fd5b50600436106100df5760003560e01c80636a4f832b1161008c578063a22cb46511610066578063a22cb465146101b7578063b88d4fde146101ca578063c87b56dd146101dd578063e985e9c5146101f057600080fd5b80636a4f832b1461017b57806370a082311461018e57806395d89b41146101af57600080fd5b806323b872dd116100bd57806323b872dd1461014257806342842e0e146101555780636352211e1461016857600080fd5b806306fdde03146100e4578063081812fc14610102578063095ea7b31461012d575b600080fd5b6100ec61023c565b6040516100f99190610fb0565b60405180910390f35b610115610110366004610fc3565b6102ce565b6040516001600160a01b0390911681526020016100f9565b61014061013b366004610ff8565b6102f5565b005b610140610150366004611022565b61039e565b610140610163366004611022565b610415565b610115610176366004610fc3565b610430565b610140610189366004611101565b61049b565b6101a161019c366004611158565b610519565b6040519081526020016100f9565b6100ec6105b3565b6101406101c5366004611173565b6105c2565b6101406101d83660046111af565b6105d1565b6100ec6101eb366004610fc3565b61064f565b61022c6101fe366004611217565b6001600160a01b03918216600090815260056020908152604080832093909416825291909152205460ff1690565b60405190151581526020016100f9565b60606000805461024b9061124a565b80601f01602080910402602001604051908101604052809291908181526020018280546102779061124a565b80156102c45780601f10610299576101008083540402835291602001916102c4565b820191906000526020600020905b8154815290600101906020018083116102a757829003601f168201915b5050505050905090565b60006102d9826106c3565b506000908152600460205260409020546001600160a01b031690565b600061030082610430565b9050806001600160a01b0316836001600160a01b0316141561038f5760405162461bcd60e51b815260206004820152602160248201527f4552433732313a20617070726f76616c20746f2063757272656e74206f776e6560448201527f720000000000000000000000000000000000000000000000000000000000000060648201526084015b60405180910390fd5b610399838361072a565b505050565b6103a833826107a5565b61040a5760405162461bcd60e51b815260206004820152602d60248201527f4552433732313a2063616c6c6572206973206e6f7420746f6b656e206f776e6560448201526c1c881bdc88185c1c1c9bdd9959609a1b6064820152608401610386565b610399838383610824565b610399838383604051806020016040528060008152506105d1565b6000818152600260205260408120546001600160a01b0316806104955760405162461bcd60e51b815260206004820152601860248201527f4552433732313a20696e76616c696420746f6b656e20494400000000000000006044820152606401610386565b92915050565b6104a58383610a1a565b6104b26000848484610b69565b6103995760405162461bcd60e51b815260206004820152603260248201527f4552433732313a207472616e7366657220746f206e6f6e20455243373231526560448201527131b2b4bb32b91034b6b83632b6b2b73a32b960711b6064820152608401610386565b60006001600160a01b0382166105975760405162461bcd60e51b815260206004820152602960248201527f4552433732313a2061646472657373207a65726f206973206e6f74206120766160448201527f6c6964206f776e657200000000000000000000000000000000000000000000006064820152608401610386565b506001600160a01b031660009081526003602052604090205490565b60606001805461024b9061124a565b6105cd338383610cd9565b5050565b6105db33836107a5565b61063d5760405162461bcd60e51b815260206004820152602d60248201527f4552433732313a2063616c6c6572206973206e6f7420746f6b656e206f776e6560448201526c1c881bdc88185c1c1c9bdd9959609a1b6064820152608401610386565b61064984848484610da8565b50505050565b606061065a826106c3565b600061067160408051602081019091526000815290565b9050600081511161069157604051806020016040528060008152506106bc565b8061069b84610e26565b6040516020016106ac929190611285565b6040516020818303038152906040525b9392505050565b6000818152600260205260409020546001600160a01b03166107275760405162461bcd60e51b815260206004820152601860248201527f4552433732313a20696e76616c696420746f6b656e20494400000000000000006044820152606401610386565b50565b6000818152600460205260409020805473ffffffffffffffffffffffffffffffffffffffff19166001600160a01b038416908117909155819061076c82610430565b6001600160a01b03167f8c5be1e5ebec7d5bd14f71427d1e84f3dd0314c0f7b2291e5b200ac8c7c3b92560405160405180910390a45050565b6000806107b183610430565b9050806001600160a01b0316846001600160a01b031614806107f857506001600160a01b0380821660009081526005602090815260408083209388168352929052205460ff165b8061081c5750836001600160a01b0316610811846102ce565b6001600160a01b0316145b949350505050565b826001600160a01b031661083782610430565b6001600160a01b0316146108b35760405162461bcd60e51b815260206004820152602560248201527f4552433732313a207472616e736665722066726f6d20696e636f72726563742060448201527f6f776e65720000000000000000000000000000000000000000000000000000006064820152608401610386565b6001600160a01b03821661092e5760405162461bcd60e51b8152602060048201526024808201527f4552433732313a207472616e7366657220746f20746865207a65726f2061646460448201527f72657373000000000000000000000000000000000000000000000000000000006064820152608401610386565b6000818152600460209081526040808320805473ffffffffffffffffffffffffffffffffffffffff191690556001600160a01b03861683526003909152812080546001929061097e9084906112ca565b90915550506001600160a01b03821660009081526003602052604081208054600192906109ac9084906112e1565b9091555050600081815260026020526040808220805473ffffffffffffffffffffffffffffffffffffffff19166001600160a01b0386811691821790925591518493918716917fddf252ad1be2c89b69c2b068fc378daa952ba7f163c4a11628f55a4df523b3ef91a4505050565b6001600160a01b038216610a705760405162461bcd60e51b815260206004820181905260248201527f4552433732313a206d696e7420746f20746865207a65726f20616464726573736044820152606401610386565b6000818152600260205260409020546001600160a01b031615610ad55760405162461bcd60e51b815260206004820152601c60248201527f4552433732313a20746f6b656e20616c7265616479206d696e746564000000006044820152606401610386565b6001600160a01b0382166000908152600360205260408120805460019290610afe9084906112e1565b9091555050600081815260026020526040808220805473ffffffffffffffffffffffffffffffffffffffff19166001600160a01b03861690811790915590518392907fddf252ad1be2c89b69c2b068fc378daa952ba7f163c4a11628f55a4df523b3ef908290a45050565b60006001600160a01b0384163b15610cce57604051630a85bd0160e11b81526001600160a01b0385169063150b7a0290610bad9033908990889088906004016112f9565b602060405180830381600087803b158015610bc757600080fd5b505af1925050508015610bf7575060408051601f3d908101601f19168201909252610bf491810190611335565b60015b610c9c573d808015610c25576040519150601f19603f3d011682016040523d82523d6000602084013e610c2a565b606091505b508051610c945760405162461bcd60e51b815260206004820152603260248201527f4552433732313a207472616e7366657220746f206e6f6e20455243373231526560448201527131b2b4bb32b91034b6b83632b6b2b73a32b960711b6064820152608401610386565b805181602001fd5b7fffffffff0000000000000000000000000000000000000000000000000000000016630a85bd0160e11b14905061081c565b506001949350505050565b816001600160a01b0316836001600160a01b03161415610d3b5760405162461bcd60e51b815260206004820152601960248201527f4552433732313a20617070726f766520746f2063616c6c6572000000000000006044820152606401610386565b6001600160a01b03838116600081815260056020908152604080832094871680845294825291829020805460ff191686151590811790915591519182527f17307eab39ab6107e8899845ad3d59bd9653f200f220920489ca2b5937696c31910160405180910390a3505050565b610db3848484610824565b610dbf84848484610b69565b6106495760405162461bcd60e51b815260206004820152603260248201527f4552433732313a207472616e7366657220746f206e6f6e20455243373231526560448201527131b2b4bb32b91034b6b83632b6b2b73a32b960711b6064820152608401610386565b606081610e6657505060408051808201909152600181527f3000000000000000000000000000000000000000000000000000000000000000602082015290565b8160005b8115610e905780610e7a81611377565b9150610e899050600a836113a8565b9150610e6a565b60008167ffffffffffffffff811115610eab57610eab61105e565b6040519080825280601f01601f191660200182016040528015610ed5576020820181803683370190505b5090505b841561081c57610eea6001836112ca565b9150610ef7600a866113bc565b610f029060306112e1565b60f81b818381518110610f1757610f176113d0565b60200101907effffffffffffffffffffffffffffffffffffffffffffffffffffffffffffff1916908160001a905350610f51600a866113a8565b9450610ed9565b60005b83811015610f73578181015183820152602001610f5b565b838111156106495750506000910152565b60008151808452610f9c816020860160208601610f58565b601f01601f19169290920160200192915050565b6020815260006106bc6020830184610f84565b600060208284031215610fd557600080fd5b5035919050565b80356001600160a01b0381168114610ff357600080fd5b919050565b6000806040838503121561100b57600080fd5b61101483610fdc565b946020939093013593505050565b60008060006060848603121561103757600080fd5b61104084610fdc565b925061104e60208501610fdc565b9150604084013590509250925092565b634e487b7160e01b600052604160045260246000fd5b600082601f83011261108557600080fd5b813567ffffffffffffffff808211156110a0576110a061105e565b604051601f8301601f19908116603f011681019082821181831017156110c8576110c861105e565b816040528381528660208588010111156110e157600080fd5b836020870160208301376000602085830101528094505050505092915050565b60008060006060848603121561111657600080fd5b61111f84610fdc565b925060208401359150604084013567ffffffffffffffff81111561114257600080fd5b61114e86828701611074565b9150509250925092565b60006020828403121561116a57600080fd5b6106bc82610fdc565b6000806040838503121561118657600080fd5b61118f83610fdc565b9150602083013580151581146111a457600080fd5b809150509250929050565b600080600080608085870312156111c557600080fd5b6111ce85610fdc565b93506111dc60208601610fdc565b925060408501359150606085013567ffffffffffffffff8111156111ff57600080fd5b61120b87828801611074565b91505092959194509250565b6000806040838503121561122a57600080fd5b61123383610fdc565b915061124160208401610fdc565b90509250929050565b600181811c9082168061125e57607f821691505b6020821081141561127f57634e487b7160e01b600052602260045260246000fd5b50919050565b60008351611297818460208801610f58565b8351908301906112ab818360208801610f58565b01949350505050565b634e487b7160e01b600052601160045260246000fd5b6000828210156112dc576112dc6112b4565b500390565b600082198211156112f4576112f46112b4565b500190565b60006001600160a01b0380871683528086166020840152508360408301526080606083015261132b6080830184610f84565b9695505050505050565b60006020828403121561134757600080fd5b81517fffffffff00000000000000000000000000000000000000000000000000000000811681146106bc57600080fd5b600060001982141561138b5761138b6112b4565b5060010190565b634e487b7160e01b600052601260045260246000fd5b6000826113b7576113b7611392565b500490565b6000826113cb576113cb611392565b500690565b634e487b7160e01b600052603260045260246000fdfea2646970667358221220c657bd4965f36e96ac21152b4c44c4f64569671cdcdaaa34c4acff45e9ab0feb64736f6c63430008090033",
  "linkReferences": {},
  "deployedLinkReferences": {}
}