{
  "_format": "hh-sol-artifact-1",
  "contractName": "Insurance",
  "sourceName": "contracts/Insurance.sol",
  "abi": [
    {
      "inputs": [],
      "stateMutability": "nonpayable",
      "type": "constructor"
    },
    {
      "anonymous": false,
      "inputs": [
        {
          "indexed": true,
          "internalType": "address",
          "name": "owner",
          "type": "address"
        },
        {
          "indexed": true,
          "internalType": "address",
          "name": "approved",
          "type": "address"
        },
        {
          "indexed": true,
          "internalType": "uint256",
          "name": "tokenId",
          "type": "uint256"
        }
      ],
      "name": "Approval",
      "type": "event"
    },
    {
      "anonymous": false,
      "inputs": [
        {
          "indexed": true,
          "internalType": "address",
          "name": "owner",
          "type": "address"
        },
        {
          "indexed": true,
          "internalType": "address",
          "name": "operator",
          "type": "address"
        },
        {
          "indexed": false,
          "internalType": "bool",
          "name": "approved",
          "type": "bool"
        }
      ],
      "name": "ApprovalForAll",
      "type": "event"
    },
    {
      "anonymous": false,
      "inputs": [
        {
          "indexed": false,
          "internalType": "address",
          "name": "",
          "type": "address"
        },
        {
          "indexed": false,
          "internalType": "uint256",
          "name": "",
          "type": "uint256"
        },
        {
          "indexed": false,
          "internalType": "uint256",
          "name": "",
          "type": "uint256"
        },
        {
          "indexed": false,
          "internalType": "string",
          "name": "",
          "type": "string"
        }
      ],
      "name": "Details",
      "type": "event"
    },
    {
      "anonymous": false,
      "inputs": [
        {
          "indexed": true,
          "internalType": "address",
          "name": "from",
          "type": "address"
        },
        {
          "indexed": true,
          "internalType": "address",
          "name": "to",
          "type": "address"
        },
        {
          "indexed": true,
          "internalType": "uint256",
          "name": "tokenId",
          "type": "uint256"
        }
      ],
      "name": "Transfer",
      "type": "event"
    },
    {
      "inputs": [
        {
          "internalType": "address",
          "name": "to",
          "type": "address"
        },
        {
          "internalType": "uint256",
          "name": "tokenId",
          "type": "uint256"
        },
        {
          "internalType": "bytes",
          "name": "data",
          "type": "bytes"
        }
      ],
      "name": "_safeMint",
      "outputs": [],
      "stateMutability": "nonpayable",
      "type": "function"
    },
    {
      "inputs": [
        {
          "internalType": "address",
          "name": "to",
          "type": "address"
        },
        {
          "internalType": "uint256",
          "name": "tokenId",
          "type": "uint256"
        }
      ],
      "name": "approve",
      "outputs": [],
      "stateMutability": "nonpayable",
      "type": "function"
    },
    {
      "inputs": [
        {
          "internalType": "address",
          "name": "owner",
          "type": "address"
        }
      ],
      "name": "balanceOf",
      "outputs": [
        {
          "internalType": "uint256",
          "name": "",
          "type": "uint256"
        }
      ],
      "stateMutability": "view",
      "type": "function"
    },
    {
      "inputs": [
        {
          "internalType": "uint256",
          "name": "tokenId",
          "type": "uint256"
        }
      ],
      "name": "getApproved",
      "outputs": [
        {
          "internalType": "address",
          "name": "",
          "type": "address"
        }
      ],
      "stateMutability": "view",
      "type": "function"
    },
    {
      "inputs": [
        {
          "internalType": "address",
          "name": "owner",
          "type": "address"
        },
        {
          "internalType": "address",
          "name": "operator",
          "type": "address"
        }
      ],
      "name": "isApprovedForAll",
      "outputs": [
        {
          "internalType": "bool",
          "name": "",
          "type": "bool"
        }
      ],
      "stateMutability": "view",
      "type": "function"
    },
    {
      "inputs": [
        {
          "internalType": "address",
          "name": "_recipient",
          "type": "address"
        },
        {
          "internalType": "string",
          "name": "_insurancePDF",
          "type": "string"
        }
      ],
      "name": "mintNFT",
      "outputs": [
        {
          "internalType": "uint256",
          "name": "",
          "type": "uint256"
        }
      ],
      "stateMutability": "nonpayable",
      "type": "function"
    },
    {
      "inputs": [],
      "name": "name",
      "outputs": [
        {
          "internalType": "string",
          "name": "",
          "type": "string"
        }
      ],
      "stateMutability": "view",
      "type": "function"
    },
    {
      "inputs": [
        {
          "internalType": "uint256",
          "name": "",
          "type": "uint256"
        }
      ],
      "name": "nftList",
      "outputs": [
        {
          "internalType": "address",
          "name": "beneficiary",
          "type": "address"
        },
        {
          "internalType": "uint256",
          "name": "tokenId",
          "type": "uint256"
        },
        {
          "internalType": "uint256",
          "name": "mintTime",
          "type": "uint256"
        },
        {
          "internalType": "string",
          "name": "uri",
          "type": "string"
        }
      ],
      "stateMutability": "view",
      "type": "function"
    },
    {
      "inputs": [
        {
          "internalType": "uint256",
          "name": "tokenId",
          "type": "uint256"
        }
      ],
      "name": "ownerOf",
      "outputs": [
        {
          "internalType": "address",
          "name": "",
          "type": "address"
        }
      ],
      "stateMutability": "view",
      "type": "function"
    },
    {
      "inputs": [
        {
          "internalType": "address",
          "name": "from",
          "type": "address"
        },
        {
          "internalType": "address",
          "name": "to",
          "type": "address"
        },
        {
          "internalType": "uint256",
          "name": "tokenId",
          "type": "uint256"
        }
      ],
      "name": "safeTransferFrom",
      "outputs": [],
      "stateMutability": "nonpayable",
      "type": "function"
    },
    {
      "inputs": [
        {
          "internalType": "address",
          "name": "from",
          "type": "address"
        },
        {
          "internalType": "address",
          "name": "to",
          "type": "address"
        },
        {
          "internalType": "uint256",
          "name": "tokenId",
          "type": "uint256"
        },
        {
          "internalType": "bytes",
          "name": "data",
          "type": "bytes"
        }
      ],
      "name": "safeTransferFrom",
      "outputs": [],
      "stateMutability": "nonpayable",
      "type": "function"
    },
    {
      "inputs": [
        {
          "internalType": "address",
          "name": "operator",
          "type": "address"
        },
        {
          "internalType": "bool",
          "name": "approved",
          "type": "bool"
        }
      ],
      "name": "setApprovalForAll",
      "outputs": [],
      "stateMutability": "nonpayable",
      "type": "function"
    },
    {
      "inputs": [],
      "name": "symbol",
      "outputs": [
        {
          "internalType": "string",
          "name": "",
          "type": "string"
        }
      ],
      "stateMutability": "view",
      "type": "function"
    },
    {
      "inputs": [
        {
          "internalType": "uint256",
          "name": "tokenId",
          "type": "uint256"
        }
      ],
      "name": "tokenURI",
      "outputs": [
        {
          "internalType": "string",
          "name": "",
          "type": "string"
        }
      ],
      "stateMutability": "view",
      "type": "function"
    },
    {
      "inputs": [
        {
          "internalType": "address",
          "name": "from",
          "type": "address"
        },
        {
          "internalType": "address",
          "name": "to",
          "type": "address"
        },
        {
          "internalType": "uint256",
          "name": "tokenId",
          "type": "uint256"
        }
      ],
      "name": "transferFrom",
      "outputs": [],
      "stateMutability": "nonpayable",
      "type": "function"
    }
  ],
  "bytecode": "0x60806040523480156200001157600080fd5b50604080518082018252600f81526e24b739bab930b731b2902a37b5b2b760891b602080830191825283518085019094526002845261125560f21b9084015281519192916200006391600091620000ab565b50805162000079906001906020840190620000ab565b50620000859150503390565b600880546001600160a01b0319166001600160a01b03929092169190911790556200018e565b828054620000b99062000151565b90600052602060002090601f016020900481019282620000dd576000855562000128565b82601f10620000f857805160ff191683800117855562000128565b8280016001018555821562000128579182015b82811115620001285782518255916020019190600101906200010b565b50620001369291506200013a565b5090565b5b808211156200013657600081556001016200013b565b600181811c908216806200016657607f821691505b602082108114156200018857634e487b7160e01b600052602260045260246000fd5b50919050565b611aac806200019e6000396000f3fe608060405234801561001057600080fd5b50600436106100f55760003560e01c806370a0823111610097578063b88d4fde11610066578063b88d4fde14610203578063c87b56dd14610216578063e985e9c514610229578063eacabe141461027557600080fd5b806370a08231146101a457806375bea166146101c557806395d89b41146101e8578063a22cb465146101f057600080fd5b806323b872dd116100d357806323b872dd1461015857806342842e0e1461016b5780636352211e1461017e5780636a4f832b1461019157600080fd5b806306fdde03146100fa578063081812fc14610118578063095ea7b314610143575b600080fd5b610102610288565b60405161010f91906115a7565b60405180910390f35b61012b6101263660046115ba565b61031a565b6040516001600160a01b03909116815260200161010f565b6101566101513660046115ef565b610341565b005b610156610166366004611619565b6103ea565b610156610179366004611619565b610461565b61012b61018c3660046115ba565b61047c565b61015661019f366004611701565b6104e7565b6101b76101b2366004611758565b610565565b60405190815260200161010f565b6101d86101d33660046115ba565b6105ff565b60405161010f9493929190611773565b6101026106d1565b6101566101fe3660046117ab565b6106e0565b6101566102113660046117e7565b6106ef565b6101026102243660046115ba565b61076d565b61026561023736600461184f565b6001600160a01b03918216600090815260056020908152604080832093909416825291909152205460ff1690565b604051901515815260200161010f565b6101b7610283366004611882565b610778565b606060008054610297906118e4565b80601f01602080910402602001604051908101604052809291908181526020018280546102c3906118e4565b80156103105780601f106102e557610100808354040283529160200191610310565b820191906000526020600020905b8154815290600101906020018083116102f357829003601f168201915b5050505050905090565b600061032582610996565b506000908152600460205260409020546001600160a01b031690565b600061034c8261047c565b9050806001600160a01b0316836001600160a01b031614156103db5760405162461bcd60e51b815260206004820152602160248201527f4552433732313a20617070726f76616c20746f2063757272656e74206f776e6560448201527f720000000000000000000000000000000000000000000000000000000000000060648201526084015b60405180910390fd5b6103e583836109fd565b505050565b6103f43382610a6b565b6104565760405162461bcd60e51b815260206004820152602d60248201527f4552433732313a2063616c6c6572206973206e6f7420746f6b656e206f776e6560448201526c1c881bdc88185c1c1c9bdd9959609a1b60648201526084016103d2565b6103e5838383610aea565b6103e5838383604051806020016040528060008152506106ef565b6000818152600260205260408120546001600160a01b0316806104e15760405162461bcd60e51b815260206004820152601860248201527f4552433732313a20696e76616c696420746f6b656e204944000000000000000060448201526064016103d2565b92915050565b6104f18383610cc6565b6104fe6000848484610e08565b6103e55760405162461bcd60e51b815260206004820152603260248201527f4552433732313a207472616e7366657220746f206e6f6e20455243373231526560448201527131b2b4bb32b91034b6b83632b6b2b73a32b960711b60648201526084016103d2565b60006001600160a01b0382166105e35760405162461bcd60e51b815260206004820152602960248201527f4552433732313a2061646472657373207a65726f206973206e6f74206120766160448201527f6c6964206f776e6572000000000000000000000000000000000000000000000060648201526084016103d2565b506001600160a01b031660009081526003602052604090205490565b600d818154811061060f57600080fd5b600091825260209091206004909102018054600182015460028301546003840180546001600160a01b0390941695509193909290919061064e906118e4565b80601f016020809104026020016040519081016040528092919081815260200182805461067a906118e4565b80156106c75780601f1061069c576101008083540402835291602001916106c7565b820191906000526020600020905b8154815290600101906020018083116106aa57829003601f168201915b5050505050905084565b606060018054610297906118e4565b6106eb338383610f78565b5050565b6106f93383610a6b565b61075b5760405162461bcd60e51b815260206004820152602d60248201527f4552433732313a2063616c6c6572206973206e6f7420746f6b656e206f776e6560448201526c1c881bdc88185c1c1c9bdd9959609a1b60648201526084016103d2565b61076784848484611047565b50505050565b60606104e1826110c5565b6008546000906001600160a01b0316336001600160a01b0316146108045760405162461bcd60e51b815260206004820152602160248201527f4552433732313a2073656e646572206973206e6f7720617574686f72697a656460448201527f2e0000000000000000000000000000000000000000000000000000000000000060648201526084016103d2565b610812600780546001019055565b600061081d60075490565b6008549091504290610838906001600160a01b031683610cc6565b61084282856111dd565b604080516080810182526001600160a01b038716808252602080830186905292820184905260608201879052600980546001600160a01b0319169091178155600a859055600b8490558651919290916108a191600c919089019061143b565b5050600d80546001810182556000919091526009805460049092027fd7b6990105719101dabeb77144f2a3385c8033acd3af97e9423a695e81ad1eb5810180546001600160a01b0319166001600160a01b03909416939093178355600a547fd7b6990105719101dabeb77144f2a3385c8033acd3af97e9423a695e81ad1eb6820155600b547fd7b6990105719101dabeb77144f2a3385c8033acd3af97e9423a695e81ad1eb7820155600c80549294507fd7b6990105719101dabeb77144f2a3385c8033acd3af97e9423a695e81ad1eb89091019161097f906118e4565b61098a9291906114bf565b50929695505050505050565b6000818152600260205260409020546001600160a01b03166109fa5760405162461bcd60e51b815260206004820152601860248201527f4552433732313a20696e76616c696420746f6b656e204944000000000000000060448201526064016103d2565b50565b600081815260046020526040902080546001600160a01b0319166001600160a01b0384169081179091558190610a328261047c565b6001600160a01b03167f8c5be1e5ebec7d5bd14f71427d1e84f3dd0314c0f7b2291e5b200ac8c7c3b92560405160405180910390a45050565b600080610a778361047c565b9050806001600160a01b0316846001600160a01b03161480610abe57506001600160a01b0380821660009081526005602090815260408083209388168352929052205460ff165b80610ae25750836001600160a01b0316610ad78461031a565b6001600160a01b0316145b949350505050565b826001600160a01b0316610afd8261047c565b6001600160a01b031614610b795760405162461bcd60e51b815260206004820152602560248201527f4552433732313a207472616e736665722066726f6d20696e636f72726563742060448201527f6f776e657200000000000000000000000000000000000000000000000000000060648201526084016103d2565b6001600160a01b038216610bf45760405162461bcd60e51b8152602060048201526024808201527f4552433732313a207472616e7366657220746f20746865207a65726f2061646460448201527f726573730000000000000000000000000000000000000000000000000000000060648201526084016103d2565b600081815260046020908152604080832080546001600160a01b03191690556001600160a01b038616835260039091528120805460019290610c37908490611935565b90915550506001600160a01b0382166000908152600360205260408120805460019290610c6590849061194c565b909155505060008181526002602052604080822080546001600160a01b0319166001600160a01b0386811691821790925591518493918716917fddf252ad1be2c89b69c2b068fc378daa952ba7f163c4a11628f55a4df523b3ef91a4505050565b6001600160a01b038216610d1c5760405162461bcd60e51b815260206004820181905260248201527f4552433732313a206d696e7420746f20746865207a65726f206164647265737360448201526064016103d2565b6000818152600260205260409020546001600160a01b031615610d815760405162461bcd60e51b815260206004820152601c60248201527f4552433732313a20746f6b656e20616c7265616479206d696e7465640000000060448201526064016103d2565b6001600160a01b0382166000908152600360205260408120805460019290610daa90849061194c565b909155505060008181526002602052604080822080546001600160a01b0319166001600160a01b03861690811790915590518392907fddf252ad1be2c89b69c2b068fc378daa952ba7f163c4a11628f55a4df523b3ef908290a45050565b60006001600160a01b0384163b15610f6d57604051630a85bd0160e11b81526001600160a01b0385169063150b7a0290610e4c903390899088908890600401611964565b602060405180830381600087803b158015610e6657600080fd5b505af1925050508015610e96575060408051601f3d908101601f19168201909252610e9391810190611996565b60015b610f3b573d808015610ec4576040519150601f19603f3d011682016040523d82523d6000602084013e610ec9565b606091505b508051610f335760405162461bcd60e51b815260206004820152603260248201527f4552433732313a207472616e7366657220746f206e6f6e20455243373231526560448201527131b2b4bb32b91034b6b83632b6b2b73a32b960711b60648201526084016103d2565b805181602001fd5b7fffffffff0000000000000000000000000000000000000000000000000000000016630a85bd0160e11b149050610ae2565b506001949350505050565b816001600160a01b0316836001600160a01b03161415610fda5760405162461bcd60e51b815260206004820152601960248201527f4552433732313a20617070726f766520746f2063616c6c65720000000000000060448201526064016103d2565b6001600160a01b03838116600081815260056020908152604080832094871680845294825291829020805460ff191686151590811790915591519182527f17307eab39ab6107e8899845ad3d59bd9653f200f220920489ca2b5937696c31910160405180910390a3505050565b611052848484610aea565b61105e84848484610e08565b6107675760405162461bcd60e51b815260206004820152603260248201527f4552433732313a207472616e7366657220746f206e6f6e20455243373231526560448201527131b2b4bb32b91034b6b83632b6b2b73a32b960711b60648201526084016103d2565b60606110d082610996565b600082815260066020526040812080546110e9906118e4565b80601f0160208091040260200160405190810160405280929190818152602001828054611115906118e4565b80156111625780601f1061113757610100808354040283529160200191611162565b820191906000526020600020905b81548152906001019060200180831161114557829003601f168201915b50505050509050600061118f6040805180820190915260078152662e2e2f7064667360c81b602082015290565b90508051600014156111a2575092915050565b8151156111d45780826040516020016111bc9291906119d8565b60405160208183030381529060405292505050919050565b610ae284611286565b6000828152600260205260409020546001600160a01b03166112675760405162461bcd60e51b815260206004820152602e60248201527f45524337323155524953746f726167653a2055524920736574206f66206e6f6e60448201527f6578697374656e7420746f6b656e00000000000000000000000000000000000060648201526084016103d2565b600082815260066020908152604090912082516103e59284019061143b565b606061129182610996565b60006112b76040805180820190915260078152662e2e2f7064667360c81b602082015290565b905060008151116112d75760405180602001604052806000815250611302565b806112e184611309565b6040516020016112f29291906119d8565b6040516020818303038152906040525b9392505050565b60608161134957505060408051808201909152600181527f3000000000000000000000000000000000000000000000000000000000000000602082015290565b8160005b8115611373578061135d81611a07565b915061136c9050600a83611a38565b915061134d565b60008167ffffffffffffffff81111561138e5761138e611655565b6040519080825280601f01601f1916602001820160405280156113b8576020820181803683370190505b5090505b8415610ae2576113cd600183611935565b91506113da600a86611a4c565b6113e590603061194c565b60f81b8183815181106113fa576113fa611a60565b60200101907effffffffffffffffffffffffffffffffffffffffffffffffffffffffffffff1916908160001a905350611434600a86611a38565b94506113bc565b828054611447906118e4565b90600052602060002090601f01602090048101928261146957600085556114af565b82601f1061148257805160ff19168380011785556114af565b828001600101855582156114af579182015b828111156114af578251825591602001919060010190611494565b506114bb92915061153a565b5090565b8280546114cb906118e4565b90600052602060002090601f0160209004810192826114ed57600085556114af565b82601f106114fe57805485556114af565b828001600101855582156114af57600052602060002091601f016020900482015b828111156114af57825482559160010191906001019061151f565b5b808211156114bb576000815560010161153b565b60005b8381101561156a578181015183820152602001611552565b838111156107675750506000910152565b6000815180845261159381602086016020860161154f565b601f01601f19169290920160200192915050565b602081526000611302602083018461157b565b6000602082840312156115cc57600080fd5b5035919050565b80356001600160a01b03811681146115ea57600080fd5b919050565b6000806040838503121561160257600080fd5b61160b836115d3565b946020939093013593505050565b60008060006060848603121561162e57600080fd5b611637846115d3565b9250611645602085016115d3565b9150604084013590509250925092565b634e487b7160e01b600052604160045260246000fd5b600067ffffffffffffffff8084111561168657611686611655565b604051601f8501601f19908116603f011681019082821181831017156116ae576116ae611655565b816040528093508581528686860111156116c757600080fd5b858560208301376000602087830101525050509392505050565b600082601f8301126116f257600080fd5b6113028383356020850161166b565b60008060006060848603121561171657600080fd5b61171f846115d3565b925060208401359150604084013567ffffffffffffffff81111561174257600080fd5b61174e868287016116e1565b9150509250925092565b60006020828403121561176a57600080fd5b611302826115d3565b6001600160a01b03851681528360208201528260408201526080606082015260006117a1608083018461157b565b9695505050505050565b600080604083850312156117be57600080fd5b6117c7836115d3565b9150602083013580151581146117dc57600080fd5b809150509250929050565b600080600080608085870312156117fd57600080fd5b611806856115d3565b9350611814602086016115d3565b925060408501359150606085013567ffffffffffffffff81111561183757600080fd5b611843878288016116e1565b91505092959194509250565b6000806040838503121561186257600080fd5b61186b836115d3565b9150611879602084016115d3565b90509250929050565b6000806040838503121561189557600080fd5b61189e836115d3565b9150602083013567ffffffffffffffff8111156118ba57600080fd5b8301601f810185136118cb57600080fd5b6118da8582356020840161166b565b9150509250929050565b600181811c908216806118f857607f821691505b6020821081141561191957634e487b7160e01b600052602260045260246000fd5b50919050565b634e487b7160e01b600052601160045260246000fd5b6000828210156119475761194761191f565b500390565b6000821982111561195f5761195f61191f565b500190565b60006001600160a01b038087168352808616602084015250836040830152608060608301526117a1608083018461157b565b6000602082840312156119a857600080fd5b81517fffffffff000000000000000000000000000000000000000000000000000000008116811461130257600080fd5b600083516119ea81846020880161154f565b8351908301906119fe81836020880161154f565b01949350505050565b6000600019821415611a1b57611a1b61191f565b5060010190565b634e487b7160e01b600052601260045260246000fd5b600082611a4757611a47611a22565b500490565b600082611a5b57611a5b611a22565b500690565b634e487b7160e01b600052603260045260246000fdfea2646970667358221220cf4a0f2ede363c6f1ae65b2ee29a76153e42fa99dfb5b98dfce9624ccd09ba4464736f6c63430008090033",
  "linkReferences": {},
  "deployedLinkReferences": {}
}